{
	"contracts/ExampleExceptionAssert.sol": {
		"ExampleExceptionAssert": {
			"abi": [
				{
					"inputs": [
						{
							"internalType": "address",
							"name": "",
							"type": "address"
						}
					],
					"name": "balanceReceived",
					"outputs": [
						{
							"internalType": "uint8",
							"name": "",
							"type": "uint8"
						}
					],
					"stateMutability": "view",
					"type": "function"
				},
				{
					"inputs": [],
					"name": "receiveMoney",
					"outputs": [],
					"stateMutability": "payable",
					"type": "function"
				},
				{
					"inputs": [
						{
							"internalType": "address payable",
							"name": "_to",
							"type": "address"
						},
						{
							"internalType": "uint8",
							"name": "_amount",
							"type": "uint8"
						}
					],
					"name": "withdrawMoney",
					"outputs": [],
					"stateMutability": "nonpayable",
					"type": "function"
				}
			],
			"devdoc": {
				"kind": "dev",
				"methods": {},
				"version": 1
			},
			"evm": {
				"assembly": "    /* \"contracts/ExampleExceptionAssert.sol\":62:555  contract ExampleExceptionAssert {... */\n  mstore(0x40, 0x80)\n  callvalue\n  dup1\n  iszero\n  tag_1\n  jumpi\n  0x00\n  dup1\n  revert\ntag_1:\n  pop\n  dataSize(sub_0)\n  dup1\n  dataOffset(sub_0)\n  0x00\n  codecopy\n  0x00\n  return\nstop\n\nsub_0: assembly {\n        /* \"contracts/ExampleExceptionAssert.sol\":62:555  contract ExampleExceptionAssert {... */\n      mstore(0x40, 0x80)\n      jumpi(tag_1, lt(calldatasize, 0x04))\n      shr(0xe0, calldataload(0x00))\n      dup1\n      0x67c114b8\n      eq\n      tag_2\n      jumpi\n      dup1\n      0x6d26ec18\n      eq\n      tag_3\n      jumpi\n      dup1\n      0xd18a42e1\n      eq\n      tag_4\n      jumpi\n    tag_1:\n      0x00\n      dup1\n      revert\n        /* \"contracts/ExampleExceptionAssert.sol\":311:552  function withdrawMoney(address payable _to, uint8 _amount) public {... */\n    tag_2:\n      callvalue\n      dup1\n      iszero\n      tag_5\n      jumpi\n      0x00\n      dup1\n      revert\n    tag_5:\n      pop\n      tag_6\n      0x04\n      dup1\n      calldatasize\n      sub\n      dup2\n      add\n      swap1\n      tag_7\n      swap2\n      swap1\n      tag_8\n      jump\t// in\n    tag_7:\n      tag_9\n      jump\t// in\n    tag_6:\n      stop\n        /* \"contracts/ExampleExceptionAssert.sol\":156:305  function receiveMoney() public payable {... */\n    tag_3:\n      tag_10\n      tag_11\n      jump\t// in\n    tag_10:\n      stop\n        /* \"contracts/ExampleExceptionAssert.sol\":101:149  mapping(address => uint8) public balanceReceived */\n    tag_4:\n      callvalue\n      dup1\n      iszero\n      tag_12\n      jumpi\n      0x00\n      dup1\n      revert\n    tag_12:\n      pop\n      tag_13\n      0x04\n      dup1\n      calldatasize\n      sub\n      dup2\n      add\n      swap1\n      tag_14\n      swap2\n      swap1\n      tag_15\n      jump\t// in\n    tag_14:\n      tag_16\n      jump\t// in\n    tag_13:\n      mload(0x40)\n      tag_17\n      swap2\n      swap1\n      tag_18\n      jump\t// in\n    tag_17:\n      mload(0x40)\n      dup1\n      swap2\n      sub\n      swap1\n      return\n        /* \"contracts/ExampleExceptionAssert.sol\":311:552  function withdrawMoney(address payable _to, uint8 _amount) public {... */\n    tag_9:\n        /* \"contracts/ExampleExceptionAssert.sol\":406:421  balanceReceived */\n      0x00\n        /* \"contracts/ExampleExceptionAssert.sol\":406:433  balanceReceived[msg.sender] */\n      dup1\n        /* \"contracts/ExampleExceptionAssert.sol\":422:432  msg.sender */\n      caller\n        /* \"contracts/ExampleExceptionAssert.sol\":406:433  balanceReceived[msg.sender] */\n      0xffffffffffffffffffffffffffffffffffffffff\n      and\n      0xffffffffffffffffffffffffffffffffffffffff\n      and\n      dup2\n      mstore\n      0x20\n      add\n      swap1\n      dup2\n      mstore\n      0x20\n      add\n      0x00\n      keccak256\n      0x00\n      swap1\n      sload\n      swap1\n      0x0100\n      exp\n      swap1\n      div\n      0xff\n      and\n        /* \"contracts/ExampleExceptionAssert.sol\":395:433  _amount <= balanceReceived[msg.sender] */\n      0xff\n      and\n        /* \"contracts/ExampleExceptionAssert.sol\":395:402  _amount */\n      dup2\n        /* \"contracts/ExampleExceptionAssert.sol\":395:433  _amount <= balanceReceived[msg.sender] */\n      0xff\n      and\n      gt\n      iszero\n        /* \"contracts/ExampleExceptionAssert.sol\":387:466  require(_amount <= balanceReceived[msg.sender], \"Not enough funds, aborting!!\") */\n      tag_20\n      jumpi\n      mload(0x40)\n      0x08c379a000000000000000000000000000000000000000000000000000000000\n      dup2\n      mstore\n      0x04\n      add\n      tag_21\n      swap1\n      tag_22\n      jump\t// in\n    tag_21:\n      mload(0x40)\n      dup1\n      swap2\n      sub\n      swap1\n      revert\n    tag_20:\n        /* \"contracts/ExampleExceptionAssert.sol\":507:514  _amount */\n      dup1\n        /* \"contracts/ExampleExceptionAssert.sol\":476:491  balanceReceived */\n      0x00\n        /* \"contracts/ExampleExceptionAssert.sol\":476:503  balanceReceived[msg.sender] */\n      dup1\n        /* \"contracts/ExampleExceptionAssert.sol\":492:502  msg.sender */\n      caller\n        /* \"contracts/ExampleExceptionAssert.sol\":476:503  balanceReceived[msg.sender] */\n      0xffffffffffffffffffffffffffffffffffffffff\n      and\n      0xffffffffffffffffffffffffffffffffffffffff\n      and\n      dup2\n      mstore\n      0x20\n      add\n      swap1\n      dup2\n      mstore\n      0x20\n      add\n      0x00\n      keccak256\n      0x00\n        /* \"contracts/ExampleExceptionAssert.sol\":476:514  balanceReceived[msg.sender] -= _amount */\n      dup3\n      dup3\n      dup3\n      swap1\n      sload\n      swap1\n      0x0100\n      exp\n      swap1\n      div\n      0xff\n      and\n      tag_23\n      swap2\n      swap1\n      tag_24\n      jump\t// in\n    tag_23:\n      swap3\n      pop\n      0x0100\n      exp\n      dup2\n      sload\n      dup2\n      0xff\n      mul\n      not\n      and\n      swap1\n      dup4\n      0xff\n      and\n      mul\n      or\n      swap1\n      sstore\n      pop\n        /* \"contracts/ExampleExceptionAssert.sol\":524:527  _to */\n      dup2\n        /* \"contracts/ExampleExceptionAssert.sol\":524:536  _to.transfer */\n      0xffffffffffffffffffffffffffffffffffffffff\n      and\n        /* \"contracts/ExampleExceptionAssert.sol\":524:545  _to.transfer(_amount) */\n      0x08fc\n        /* \"contracts/ExampleExceptionAssert.sol\":537:544  _amount */\n      dup3\n        /* \"contracts/ExampleExceptionAssert.sol\":524:545  _to.transfer(_amount) */\n      0xff\n      and\n      swap1\n      dup2\n      iszero\n      mul\n      swap1\n      mload(0x40)\n      0x00\n      mload(0x40)\n      dup1\n      dup4\n      sub\n      dup2\n      dup6\n      dup9\n      dup9\n      call\n      swap4\n      pop\n      pop\n      pop\n      pop\n      iszero\n      dup1\n      iszero\n      tag_26\n      jumpi\n      returndatasize\n      0x00\n      dup1\n      returndatacopy\n      revert(0x00, returndatasize)\n    tag_26:\n      pop\n        /* \"contracts/ExampleExceptionAssert.sol\":311:552  function withdrawMoney(address payable _to, uint8 _amount) public {... */\n      pop\n      pop\n      jump\t// out\n        /* \"contracts/ExampleExceptionAssert.sol\":156:305  function receiveMoney() public payable {... */\n    tag_11:\n        /* \"contracts/ExampleExceptionAssert.sol\":231:240  msg.value */\n      callvalue\n        /* \"contracts/ExampleExceptionAssert.sol\":212:241  msg.value == uint8(msg.value) */\n      0xff\n      and\n        /* \"contracts/ExampleExceptionAssert.sol\":212:221  msg.value */\n      callvalue\n        /* \"contracts/ExampleExceptionAssert.sol\":212:241  msg.value == uint8(msg.value) */\n      eq\n        /* \"contracts/ExampleExceptionAssert.sol\":205:242  assert(msg.value == uint8(msg.value)) */\n      tag_28\n      jumpi\n      tag_29\n      tag_30\n      jump\t// in\n    tag_29:\n    tag_28:\n        /* \"contracts/ExampleExceptionAssert.sol\":288:297  msg.value */\n      callvalue\n        /* \"contracts/ExampleExceptionAssert.sol\":252:267  balanceReceived */\n      0x00\n        /* \"contracts/ExampleExceptionAssert.sol\":252:279  balanceReceived[msg.sender] */\n      dup1\n        /* \"contracts/ExampleExceptionAssert.sol\":268:278  msg.sender */\n      caller\n        /* \"contracts/ExampleExceptionAssert.sol\":252:279  balanceReceived[msg.sender] */\n      0xffffffffffffffffffffffffffffffffffffffff\n      and\n      0xffffffffffffffffffffffffffffffffffffffff\n      and\n      dup2\n      mstore\n      0x20\n      add\n      swap1\n      dup2\n      mstore\n      0x20\n      add\n      0x00\n      keccak256\n      0x00\n        /* \"contracts/ExampleExceptionAssert.sol\":252:298  balanceReceived[msg.sender] = uint8(msg.value) */\n      0x0100\n      exp\n      dup2\n      sload\n      dup2\n      0xff\n      mul\n      not\n      and\n      swap1\n      dup4\n      0xff\n      and\n      mul\n      or\n      swap1\n      sstore\n      pop\n        /* \"contracts/ExampleExceptionAssert.sol\":156:305  function receiveMoney() public payable {... */\n      jump\t// out\n        /* \"contracts/ExampleExceptionAssert.sol\":101:149  mapping(address => uint8) public balanceReceived */\n    tag_16:\n      mstore(0x20, 0x00)\n      dup1\n      0x00\n      mstore\n      keccak256(0x00, 0x40)\n      0x00\n      swap2\n      pop\n      sload\n      swap1\n      0x0100\n      exp\n      swap1\n      div\n      0xff\n      and\n      dup2\n      jump\t// out\n        /* \"#utility.yul\":88:205   */\n    tag_32:\n        /* \"#utility.yul\":197:198   */\n      0x00\n        /* \"#utility.yul\":194:195   */\n      dup1\n        /* \"#utility.yul\":187:199   */\n      revert\n        /* \"#utility.yul\":334:460   */\n    tag_34:\n        /* \"#utility.yul\":371:378   */\n      0x00\n        /* \"#utility.yul\":411:453   */\n      0xffffffffffffffffffffffffffffffffffffffff\n        /* \"#utility.yul\":404:409   */\n      dup3\n        /* \"#utility.yul\":400:454   */\n      and\n        /* \"#utility.yul\":389:454   */\n      swap1\n      pop\n        /* \"#utility.yul\":334:460   */\n      swap2\n      swap1\n      pop\n      jump\t// out\n        /* \"#utility.yul\":466:570   */\n    tag_35:\n        /* \"#utility.yul\":511:518   */\n      0x00\n        /* \"#utility.yul\":540:564   */\n      tag_55\n        /* \"#utility.yul\":558:563   */\n      dup3\n        /* \"#utility.yul\":540:564   */\n      tag_34\n      jump\t// in\n    tag_55:\n        /* \"#utility.yul\":529:564   */\n      swap1\n      pop\n        /* \"#utility.yul\":466:570   */\n      swap2\n      swap1\n      pop\n      jump\t// out\n        /* \"#utility.yul\":576:714   */\n    tag_36:\n        /* \"#utility.yul\":657:689   */\n      tag_57\n        /* \"#utility.yul\":683:688   */\n      dup2\n        /* \"#utility.yul\":657:689   */\n      tag_35\n      jump\t// in\n    tag_57:\n        /* \"#utility.yul\":650:655   */\n      dup2\n        /* \"#utility.yul\":647:690   */\n      eq\n        /* \"#utility.yul\":637:708   */\n      tag_58\n      jumpi\n        /* \"#utility.yul\":704:705   */\n      0x00\n        /* \"#utility.yul\":701:702   */\n      dup1\n        /* \"#utility.yul\":694:706   */\n      revert\n        /* \"#utility.yul\":637:708   */\n    tag_58:\n        /* \"#utility.yul\":576:714   */\n      pop\n      jump\t// out\n        /* \"#utility.yul\":720:875   */\n    tag_37:\n        /* \"#utility.yul\":774:779   */\n      0x00\n        /* \"#utility.yul\":812:818   */\n      dup2\n        /* \"#utility.yul\":799:819   */\n      calldataload\n        /* \"#utility.yul\":790:819   */\n      swap1\n      pop\n        /* \"#utility.yul\":828:869   */\n      tag_60\n        /* \"#utility.yul\":863:868   */\n      dup2\n        /* \"#utility.yul\":828:869   */\n      tag_36\n      jump\t// in\n    tag_60:\n        /* \"#utility.yul\":720:875   */\n      swap3\n      swap2\n      pop\n      pop\n      jump\t// out\n        /* \"#utility.yul\":881:967   */\n    tag_38:\n        /* \"#utility.yul\":916:923   */\n      0x00\n        /* \"#utility.yul\":956:960   */\n      0xff\n        /* \"#utility.yul\":949:954   */\n      dup3\n        /* \"#utility.yul\":945:961   */\n      and\n        /* \"#utility.yul\":934:961   */\n      swap1\n      pop\n        /* \"#utility.yul\":881:967   */\n      swap2\n      swap1\n      pop\n      jump\t// out\n        /* \"#utility.yul\":973:1091   */\n    tag_39:\n        /* \"#utility.yul\":1044:1066   */\n      tag_63\n        /* \"#utility.yul\":1060:1065   */\n      dup2\n        /* \"#utility.yul\":1044:1066   */\n      tag_38\n      jump\t// in\n    tag_63:\n        /* \"#utility.yul\":1037:1042   */\n      dup2\n        /* \"#utility.yul\":1034:1067   */\n      eq\n        /* \"#utility.yul\":1024:1085   */\n      tag_64\n      jumpi\n        /* \"#utility.yul\":1081:1082   */\n      0x00\n        /* \"#utility.yul\":1078:1079   */\n      dup1\n        /* \"#utility.yul\":1071:1083   */\n      revert\n        /* \"#utility.yul\":1024:1085   */\n    tag_64:\n        /* \"#utility.yul\":973:1091   */\n      pop\n      jump\t// out\n        /* \"#utility.yul\":1097:1232   */\n    tag_40:\n        /* \"#utility.yul\":1141:1146   */\n      0x00\n        /* \"#utility.yul\":1179:1185   */\n      dup2\n        /* \"#utility.yul\":1166:1186   */\n      calldataload\n        /* \"#utility.yul\":1157:1186   */\n      swap1\n      pop\n        /* \"#utility.yul\":1195:1226   */\n      tag_66\n        /* \"#utility.yul\":1220:1225   */\n      dup2\n        /* \"#utility.yul\":1195:1226   */\n      tag_39\n      jump\t// in\n    tag_66:\n        /* \"#utility.yul\":1097:1232   */\n      swap3\n      swap2\n      pop\n      pop\n      jump\t// out\n        /* \"#utility.yul\":1238:1724   */\n    tag_8:\n        /* \"#utility.yul\":1312:1318   */\n      0x00\n        /* \"#utility.yul\":1320:1326   */\n      dup1\n        /* \"#utility.yul\":1369:1371   */\n      0x40\n        /* \"#utility.yul\":1357:1366   */\n      dup4\n        /* \"#utility.yul\":1348:1355   */\n      dup6\n        /* \"#utility.yul\":1344:1367   */\n      sub\n        /* \"#utility.yul\":1340:1372   */\n      slt\n        /* \"#utility.yul\":1337:1456   */\n      iszero\n      tag_68\n      jumpi\n        /* \"#utility.yul\":1375:1454   */\n      tag_69\n      tag_32\n      jump\t// in\n    tag_69:\n        /* \"#utility.yul\":1337:1456   */\n    tag_68:\n        /* \"#utility.yul\":1495:1496   */\n      0x00\n        /* \"#utility.yul\":1520:1581   */\n      tag_70\n        /* \"#utility.yul\":1573:1580   */\n      dup6\n        /* \"#utility.yul\":1564:1570   */\n      dup3\n        /* \"#utility.yul\":1553:1562   */\n      dup7\n        /* \"#utility.yul\":1549:1571   */\n      add\n        /* \"#utility.yul\":1520:1581   */\n      tag_37\n      jump\t// in\n    tag_70:\n        /* \"#utility.yul\":1510:1581   */\n      swap3\n      pop\n        /* \"#utility.yul\":1466:1591   */\n      pop\n        /* \"#utility.yul\":1630:1632   */\n      0x20\n        /* \"#utility.yul\":1656:1707   */\n      tag_71\n        /* \"#utility.yul\":1699:1706   */\n      dup6\n        /* \"#utility.yul\":1690:1696   */\n      dup3\n        /* \"#utility.yul\":1679:1688   */\n      dup7\n        /* \"#utility.yul\":1675:1697   */\n      add\n        /* \"#utility.yul\":1656:1707   */\n      tag_40\n      jump\t// in\n    tag_71:\n        /* \"#utility.yul\":1646:1707   */\n      swap2\n      pop\n        /* \"#utility.yul\":1601:1717   */\n      pop\n        /* \"#utility.yul\":1238:1724   */\n      swap3\n      pop\n      swap3\n      swap1\n      pop\n      jump\t// out\n        /* \"#utility.yul\":1730:1826   */\n    tag_41:\n        /* \"#utility.yul\":1767:1774   */\n      0x00\n        /* \"#utility.yul\":1796:1820   */\n      tag_73\n        /* \"#utility.yul\":1814:1819   */\n      dup3\n        /* \"#utility.yul\":1796:1820   */\n      tag_34\n      jump\t// in\n    tag_73:\n        /* \"#utility.yul\":1785:1820   */\n      swap1\n      pop\n        /* \"#utility.yul\":1730:1826   */\n      swap2\n      swap1\n      pop\n      jump\t// out\n        /* \"#utility.yul\":1832:1954   */\n    tag_42:\n        /* \"#utility.yul\":1905:1929   */\n      tag_75\n        /* \"#utility.yul\":1923:1928   */\n      dup2\n        /* \"#utility.yul\":1905:1929   */\n      tag_41\n      jump\t// in\n    tag_75:\n        /* \"#utility.yul\":1898:1903   */\n      dup2\n        /* \"#utility.yul\":1895:1930   */\n      eq\n        /* \"#utility.yul\":1885:1948   */\n      tag_76\n      jumpi\n        /* \"#utility.yul\":1944:1945   */\n      0x00\n        /* \"#utility.yul\":1941:1942   */\n      dup1\n        /* \"#utility.yul\":1934:1946   */\n      revert\n        /* \"#utility.yul\":1885:1948   */\n    tag_76:\n        /* \"#utility.yul\":1832:1954   */\n      pop\n      jump\t// out\n        /* \"#utility.yul\":1960:2099   */\n    tag_43:\n        /* \"#utility.yul\":2006:2011   */\n      0x00\n        /* \"#utility.yul\":2044:2050   */\n      dup2\n        /* \"#utility.yul\":2031:2051   */\n      calldataload\n        /* \"#utility.yul\":2022:2051   */\n      swap1\n      pop\n        /* \"#utility.yul\":2060:2093   */\n      tag_78\n        /* \"#utility.yul\":2087:2092   */\n      dup2\n        /* \"#utility.yul\":2060:2093   */\n      tag_42\n      jump\t// in\n    tag_78:\n        /* \"#utility.yul\":1960:2099   */\n      swap3\n      swap2\n      pop\n      pop\n      jump\t// out\n        /* \"#utility.yul\":2105:2434   */\n    tag_15:\n        /* \"#utility.yul\":2164:2170   */\n      0x00\n        /* \"#utility.yul\":2213:2215   */\n      0x20\n        /* \"#utility.yul\":2201:2210   */\n      dup3\n        /* \"#utility.yul\":2192:2199   */\n      dup5\n        /* \"#utility.yul\":2188:2211   */\n      sub\n        /* \"#utility.yul\":2184:2216   */\n      slt\n        /* \"#utility.yul\":2181:2300   */\n      iszero\n      tag_80\n      jumpi\n        /* \"#utility.yul\":2219:2298   */\n      tag_81\n      tag_32\n      jump\t// in\n    tag_81:\n        /* \"#utility.yul\":2181:2300   */\n    tag_80:\n        /* \"#utility.yul\":2339:2340   */\n      0x00\n        /* \"#utility.yul\":2364:2417   */\n      tag_82\n        /* \"#utility.yul\":2409:2416   */\n      dup5\n        /* \"#utility.yul\":2400:2406   */\n      dup3\n        /* \"#utility.yul\":2389:2398   */\n      dup6\n        /* \"#utility.yul\":2385:2407   */\n      add\n        /* \"#utility.yul\":2364:2417   */\n      tag_43\n      jump\t// in\n    tag_82:\n        /* \"#utility.yul\":2354:2417   */\n      swap2\n      pop\n        /* \"#utility.yul\":2310:2427   */\n      pop\n        /* \"#utility.yul\":2105:2434   */\n      swap3\n      swap2\n      pop\n      pop\n      jump\t// out\n        /* \"#utility.yul\":2440:2552   */\n    tag_44:\n        /* \"#utility.yul\":2523:2545   */\n      tag_84\n        /* \"#utility.yul\":2539:2544   */\n      dup2\n        /* \"#utility.yul\":2523:2545   */\n      tag_38\n      jump\t// in\n    tag_84:\n        /* \"#utility.yul\":2518:2521   */\n      dup3\n        /* \"#utility.yul\":2511:2546   */\n      mstore\n        /* \"#utility.yul\":2440:2552   */\n      pop\n      pop\n      jump\t// out\n        /* \"#utility.yul\":2558:2772   */\n    tag_18:\n        /* \"#utility.yul\":2647:2651   */\n      0x00\n        /* \"#utility.yul\":2685:2687   */\n      0x20\n        /* \"#utility.yul\":2674:2683   */\n      dup3\n        /* \"#utility.yul\":2670:2688   */\n      add\n        /* \"#utility.yul\":2662:2688   */\n      swap1\n      pop\n        /* \"#utility.yul\":2698:2765   */\n      tag_86\n        /* \"#utility.yul\":2762:2763   */\n      0x00\n        /* \"#utility.yul\":2751:2760   */\n      dup4\n        /* \"#utility.yul\":2747:2764   */\n      add\n        /* \"#utility.yul\":2738:2744   */\n      dup5\n        /* \"#utility.yul\":2698:2765   */\n      tag_44\n      jump\t// in\n    tag_86:\n        /* \"#utility.yul\":2558:2772   */\n      swap3\n      swap2\n      pop\n      pop\n      jump\t// out\n        /* \"#utility.yul\":2778:2947   */\n    tag_45:\n        /* \"#utility.yul\":2862:2873   */\n      0x00\n        /* \"#utility.yul\":2896:2902   */\n      dup3\n        /* \"#utility.yul\":2891:2894   */\n      dup3\n        /* \"#utility.yul\":2884:2903   */\n      mstore\n        /* \"#utility.yul\":2936:2940   */\n      0x20\n        /* \"#utility.yul\":2931:2934   */\n      dup3\n        /* \"#utility.yul\":2927:2941   */\n      add\n        /* \"#utility.yul\":2912:2941   */\n      swap1\n      pop\n        /* \"#utility.yul\":2778:2947   */\n      swap3\n      swap2\n      pop\n      pop\n      jump\t// out\n        /* \"#utility.yul\":2953:3131   */\n    tag_46:\n        /* \"#utility.yul\":3093:3123   */\n      0x4e6f7420656e6f7567682066756e64732c2061626f7274696e67212100000000\n        /* \"#utility.yul\":3089:3090   */\n      0x00\n        /* \"#utility.yul\":3081:3087   */\n      dup3\n        /* \"#utility.yul\":3077:3091   */\n      add\n        /* \"#utility.yul\":3070:3124   */\n      mstore\n        /* \"#utility.yul\":2953:3131   */\n      pop\n      jump\t// out\n        /* \"#utility.yul\":3137:3503   */\n    tag_47:\n        /* \"#utility.yul\":3279:3282   */\n      0x00\n        /* \"#utility.yul\":3300:3367   */\n      tag_90\n        /* \"#utility.yul\":3364:3366   */\n      0x1c\n        /* \"#utility.yul\":3359:3362   */\n      dup4\n        /* \"#utility.yul\":3300:3367   */\n      tag_45\n      jump\t// in\n    tag_90:\n        /* \"#utility.yul\":3293:3367   */\n      swap2\n      pop\n        /* \"#utility.yul\":3376:3469   */\n      tag_91\n        /* \"#utility.yul\":3465:3468   */\n      dup3\n        /* \"#utility.yul\":3376:3469   */\n      tag_46\n      jump\t// in\n    tag_91:\n        /* \"#utility.yul\":3494:3496   */\n      0x20\n        /* \"#utility.yul\":3489:3492   */\n      dup3\n        /* \"#utility.yul\":3485:3497   */\n      add\n        /* \"#utility.yul\":3478:3497   */\n      swap1\n      pop\n        /* \"#utility.yul\":3137:3503   */\n      swap2\n      swap1\n      pop\n      jump\t// out\n        /* \"#utility.yul\":3509:3928   */\n    tag_22:\n        /* \"#utility.yul\":3675:3679   */\n      0x00\n        /* \"#utility.yul\":3713:3715   */\n      0x20\n        /* \"#utility.yul\":3702:3711   */\n      dup3\n        /* \"#utility.yul\":3698:3716   */\n      add\n        /* \"#utility.yul\":3690:3716   */\n      swap1\n      pop\n        /* \"#utility.yul\":3762:3771   */\n      dup2\n        /* \"#utility.yul\":3756:3760   */\n      dup2\n        /* \"#utility.yul\":3752:3772   */\n      sub\n        /* \"#utility.yul\":3748:3749   */\n      0x00\n        /* \"#utility.yul\":3737:3746   */\n      dup4\n        /* \"#utility.yul\":3733:3750   */\n      add\n        /* \"#utility.yul\":3726:3773   */\n      mstore\n        /* \"#utility.yul\":3790:3921   */\n      tag_93\n        /* \"#utility.yul\":3916:3920   */\n      dup2\n        /* \"#utility.yul\":3790:3921   */\n      tag_47\n      jump\t// in\n    tag_93:\n        /* \"#utility.yul\":3782:3921   */\n      swap1\n      pop\n        /* \"#utility.yul\":3509:3928   */\n      swap2\n      swap1\n      pop\n      jump\t// out\n        /* \"#utility.yul\":3934:4114   */\n    tag_48:\n        /* \"#utility.yul\":3982:4059   */\n      0x4e487b7100000000000000000000000000000000000000000000000000000000\n        /* \"#utility.yul\":3979:3980   */\n      0x00\n        /* \"#utility.yul\":3972:4060   */\n      mstore\n        /* \"#utility.yul\":4079:4083   */\n      0x11\n        /* \"#utility.yul\":4076:4077   */\n      0x04\n        /* \"#utility.yul\":4069:4084   */\n      mstore\n        /* \"#utility.yul\":4103:4107   */\n      0x24\n        /* \"#utility.yul\":4100:4101   */\n      0x00\n        /* \"#utility.yul\":4093:4108   */\n      revert\n        /* \"#utility.yul\":4120:4311   */\n    tag_24:\n        /* \"#utility.yul\":4158:4162   */\n      0x00\n        /* \"#utility.yul\":4178:4196   */\n      tag_96\n        /* \"#utility.yul\":4194:4195   */\n      dup3\n        /* \"#utility.yul\":4178:4196   */\n      tag_38\n      jump\t// in\n    tag_96:\n        /* \"#utility.yul\":4173:4196   */\n      swap2\n      pop\n        /* \"#utility.yul\":4210:4228   */\n      tag_97\n        /* \"#utility.yul\":4226:4227   */\n      dup4\n        /* \"#utility.yul\":4210:4228   */\n      tag_38\n      jump\t// in\n    tag_97:\n        /* \"#utility.yul\":4205:4228   */\n      swap3\n      pop\n        /* \"#utility.yul\":4252:4253   */\n      dup3\n        /* \"#utility.yul\":4249:4250   */\n      dup3\n        /* \"#utility.yul\":4245:4254   */\n      sub\n        /* \"#utility.yul\":4237:4254   */\n      swap1\n      pop\n        /* \"#utility.yul\":4276:4280   */\n      0xff\n        /* \"#utility.yul\":4270:4274   */\n      dup2\n        /* \"#utility.yul\":4267:4281   */\n      gt\n        /* \"#utility.yul\":4264:4304   */\n      iszero\n      tag_98\n      jumpi\n        /* \"#utility.yul\":4284:4302   */\n      tag_99\n      tag_48\n      jump\t// in\n    tag_99:\n        /* \"#utility.yul\":4264:4304   */\n    tag_98:\n        /* \"#utility.yul\":4120:4311   */\n      swap3\n      swap2\n      pop\n      pop\n      jump\t// out\n        /* \"#utility.yul\":4317:4497   */\n    tag_30:\n        /* \"#utility.yul\":4365:4442   */\n      0x4e487b7100000000000000000000000000000000000000000000000000000000\n        /* \"#utility.yul\":4362:4363   */\n      0x00\n        /* \"#utility.yul\":4355:4443   */\n      mstore\n        /* \"#utility.yul\":4462:4466   */\n      0x01\n        /* \"#utility.yul\":4459:4460   */\n      0x04\n        /* \"#utility.yul\":4452:4467   */\n      mstore\n        /* \"#utility.yul\":4486:4490   */\n      0x24\n        /* \"#utility.yul\":4483:4484   */\n      0x00\n        /* \"#utility.yul\":4476:4491   */\n      revert\n\n    auxdata: 0xa2646970667358221220b43e8c2ee301a5d0d6e2bd6763265b923167d9c8f85dee8bd8b790a83a1d3a7364736f6c63430008110033\n}\n",
				"bytecode": {
					"linkReferences": {},
					"object": "608060405234801561001057600080fd5b50610540806100206000396000f3fe6080604052600436106100345760003560e01c806367c114b8146100395780636d26ec1814610062578063d18a42e11461006c575b600080fd5b34801561004557600080fd5b50610060600480360381019061005b9190610325565b6100a9565b005b61006a6101fd565b005b34801561007857600080fd5b50610093600480360381019061008e91906103a3565b610269565b6040516100a091906103df565b60405180910390f35b6000803373ffffffffffffffffffffffffffffffffffffffff1673ffffffffffffffffffffffffffffffffffffffff16815260200190815260200160002060009054906101000a900460ff1660ff168160ff16111561013d576040517f08c379a000000000000000000000000000000000000000000000000000000000815260040161013490610457565b60405180910390fd5b806000803373ffffffffffffffffffffffffffffffffffffffff1673ffffffffffffffffffffffffffffffffffffffff16815260200190815260200160002060008282829054906101000a900460ff1661019791906104a6565b92506101000a81548160ff021916908360ff1602179055508173ffffffffffffffffffffffffffffffffffffffff166108fc8260ff169081150290604051600060405180830381858888f193505050501580156101f8573d6000803e3d6000fd5b505050565b3460ff1634146102105761020f6104db565b5b346000803373ffffffffffffffffffffffffffffffffffffffff1673ffffffffffffffffffffffffffffffffffffffff16815260200190815260200160002060006101000a81548160ff021916908360ff160217905550565b60006020528060005260406000206000915054906101000a900460ff1681565b600080fd5b600073ffffffffffffffffffffffffffffffffffffffff82169050919050565b60006102b98261028e565b9050919050565b6102c9816102ae565b81146102d457600080fd5b50565b6000813590506102e6816102c0565b92915050565b600060ff82169050919050565b610302816102ec565b811461030d57600080fd5b50565b60008135905061031f816102f9565b92915050565b6000806040838503121561033c5761033b610289565b5b600061034a858286016102d7565b925050602061035b85828601610310565b9150509250929050565b60006103708261028e565b9050919050565b61038081610365565b811461038b57600080fd5b50565b60008135905061039d81610377565b92915050565b6000602082840312156103b9576103b8610289565b5b60006103c78482850161038e565b91505092915050565b6103d9816102ec565b82525050565b60006020820190506103f460008301846103d0565b92915050565b600082825260208201905092915050565b7f4e6f7420656e6f7567682066756e64732c2061626f7274696e67212100000000600082015250565b6000610441601c836103fa565b915061044c8261040b565b602082019050919050565b6000602082019050818103600083015261047081610434565b9050919050565b7f4e487b7100000000000000000000000000000000000000000000000000000000600052601160045260246000fd5b60006104b1826102ec565b91506104bc836102ec565b9250828203905060ff8111156104d5576104d4610477565b5b92915050565b7f4e487b7100000000000000000000000000000000000000000000000000000000600052600160045260246000fdfea2646970667358221220b43e8c2ee301a5d0d6e2bd6763265b923167d9c8f85dee8bd8b790a83a1d3a7364736f6c63430008110033",
					"opcodes": "PUSH1 0x80 PUSH1 0x40 MSTORE CALLVALUE DUP1 ISZERO PUSH2 0x10 JUMPI PUSH1 0x0 DUP1 REVERT JUMPDEST POP PUSH2 0x540 DUP1 PUSH2 0x20 PUSH1 0x0 CODECOPY PUSH1 0x0 RETURN INVALID PUSH1 0x80 PUSH1 0x40 MSTORE PUSH1 0x4 CALLDATASIZE LT PUSH2 0x34 JUMPI PUSH1 0x0 CALLDATALOAD PUSH1 0xE0 SHR DUP1 PUSH4 0x67C114B8 EQ PUSH2 0x39 JUMPI DUP1 PUSH4 0x6D26EC18 EQ PUSH2 0x62 JUMPI DUP1 PUSH4 0xD18A42E1 EQ PUSH2 0x6C JUMPI JUMPDEST PUSH1 0x0 DUP1 REVERT JUMPDEST CALLVALUE DUP1 ISZERO PUSH2 0x45 JUMPI PUSH1 0x0 DUP1 REVERT JUMPDEST POP PUSH2 0x60 PUSH1 0x4 DUP1 CALLDATASIZE SUB DUP2 ADD SWAP1 PUSH2 0x5B SWAP2 SWAP1 PUSH2 0x325 JUMP JUMPDEST PUSH2 0xA9 JUMP JUMPDEST STOP JUMPDEST PUSH2 0x6A PUSH2 0x1FD JUMP JUMPDEST STOP JUMPDEST CALLVALUE DUP1 ISZERO PUSH2 0x78 JUMPI PUSH1 0x0 DUP1 REVERT JUMPDEST POP PUSH2 0x93 PUSH1 0x4 DUP1 CALLDATASIZE SUB DUP2 ADD SWAP1 PUSH2 0x8E SWAP2 SWAP1 PUSH2 0x3A3 JUMP JUMPDEST PUSH2 0x269 JUMP JUMPDEST PUSH1 0x40 MLOAD PUSH2 0xA0 SWAP2 SWAP1 PUSH2 0x3DF JUMP JUMPDEST PUSH1 0x40 MLOAD DUP1 SWAP2 SUB SWAP1 RETURN JUMPDEST PUSH1 0x0 DUP1 CALLER PUSH20 0xFFFFFFFFFFFFFFFFFFFFFFFFFFFFFFFFFFFFFFFF AND PUSH20 0xFFFFFFFFFFFFFFFFFFFFFFFFFFFFFFFFFFFFFFFF AND DUP2 MSTORE PUSH1 0x20 ADD SWAP1 DUP2 MSTORE PUSH1 0x20 ADD PUSH1 0x0 KECCAK256 PUSH1 0x0 SWAP1 SLOAD SWAP1 PUSH2 0x100 EXP SWAP1 DIV PUSH1 0xFF AND PUSH1 0xFF AND DUP2 PUSH1 0xFF AND GT ISZERO PUSH2 0x13D JUMPI PUSH1 0x40 MLOAD PUSH32 0x8C379A000000000000000000000000000000000000000000000000000000000 DUP2 MSTORE PUSH1 0x4 ADD PUSH2 0x134 SWAP1 PUSH2 0x457 JUMP JUMPDEST PUSH1 0x40 MLOAD DUP1 SWAP2 SUB SWAP1 REVERT JUMPDEST DUP1 PUSH1 0x0 DUP1 CALLER PUSH20 0xFFFFFFFFFFFFFFFFFFFFFFFFFFFFFFFFFFFFFFFF AND PUSH20 0xFFFFFFFFFFFFFFFFFFFFFFFFFFFFFFFFFFFFFFFF AND DUP2 MSTORE PUSH1 0x20 ADD SWAP1 DUP2 MSTORE PUSH1 0x20 ADD PUSH1 0x0 KECCAK256 PUSH1 0x0 DUP3 DUP3 DUP3 SWAP1 SLOAD SWAP1 PUSH2 0x100 EXP SWAP1 DIV PUSH1 0xFF AND PUSH2 0x197 SWAP2 SWAP1 PUSH2 0x4A6 JUMP JUMPDEST SWAP3 POP PUSH2 0x100 EXP DUP2 SLOAD DUP2 PUSH1 0xFF MUL NOT AND SWAP1 DUP4 PUSH1 0xFF AND MUL OR SWAP1 SSTORE POP DUP2 PUSH20 0xFFFFFFFFFFFFFFFFFFFFFFFFFFFFFFFFFFFFFFFF AND PUSH2 0x8FC DUP3 PUSH1 0xFF AND SWAP1 DUP2 ISZERO MUL SWAP1 PUSH1 0x40 MLOAD PUSH1 0x0 PUSH1 0x40 MLOAD DUP1 DUP4 SUB DUP2 DUP6 DUP9 DUP9 CALL SWAP4 POP POP POP POP ISZERO DUP1 ISZERO PUSH2 0x1F8 JUMPI RETURNDATASIZE PUSH1 0x0 DUP1 RETURNDATACOPY RETURNDATASIZE PUSH1 0x0 REVERT JUMPDEST POP POP POP JUMP JUMPDEST CALLVALUE PUSH1 0xFF AND CALLVALUE EQ PUSH2 0x210 JUMPI PUSH2 0x20F PUSH2 0x4DB JUMP JUMPDEST JUMPDEST CALLVALUE PUSH1 0x0 DUP1 CALLER PUSH20 0xFFFFFFFFFFFFFFFFFFFFFFFFFFFFFFFFFFFFFFFF AND PUSH20 0xFFFFFFFFFFFFFFFFFFFFFFFFFFFFFFFFFFFFFFFF AND DUP2 MSTORE PUSH1 0x20 ADD SWAP1 DUP2 MSTORE PUSH1 0x20 ADD PUSH1 0x0 KECCAK256 PUSH1 0x0 PUSH2 0x100 EXP DUP2 SLOAD DUP2 PUSH1 0xFF MUL NOT AND SWAP1 DUP4 PUSH1 0xFF AND MUL OR SWAP1 SSTORE POP JUMP JUMPDEST PUSH1 0x0 PUSH1 0x20 MSTORE DUP1 PUSH1 0x0 MSTORE PUSH1 0x40 PUSH1 0x0 KECCAK256 PUSH1 0x0 SWAP2 POP SLOAD SWAP1 PUSH2 0x100 EXP SWAP1 DIV PUSH1 0xFF AND DUP2 JUMP JUMPDEST PUSH1 0x0 DUP1 REVERT JUMPDEST PUSH1 0x0 PUSH20 0xFFFFFFFFFFFFFFFFFFFFFFFFFFFFFFFFFFFFFFFF DUP3 AND SWAP1 POP SWAP2 SWAP1 POP JUMP JUMPDEST PUSH1 0x0 PUSH2 0x2B9 DUP3 PUSH2 0x28E JUMP JUMPDEST SWAP1 POP SWAP2 SWAP1 POP JUMP JUMPDEST PUSH2 0x2C9 DUP2 PUSH2 0x2AE JUMP JUMPDEST DUP2 EQ PUSH2 0x2D4 JUMPI PUSH1 0x0 DUP1 REVERT JUMPDEST POP JUMP JUMPDEST PUSH1 0x0 DUP2 CALLDATALOAD SWAP1 POP PUSH2 0x2E6 DUP2 PUSH2 0x2C0 JUMP JUMPDEST SWAP3 SWAP2 POP POP JUMP JUMPDEST PUSH1 0x0 PUSH1 0xFF DUP3 AND SWAP1 POP SWAP2 SWAP1 POP JUMP JUMPDEST PUSH2 0x302 DUP2 PUSH2 0x2EC JUMP JUMPDEST DUP2 EQ PUSH2 0x30D JUMPI PUSH1 0x0 DUP1 REVERT JUMPDEST POP JUMP JUMPDEST PUSH1 0x0 DUP2 CALLDATALOAD SWAP1 POP PUSH2 0x31F DUP2 PUSH2 0x2F9 JUMP JUMPDEST SWAP3 SWAP2 POP POP JUMP JUMPDEST PUSH1 0x0 DUP1 PUSH1 0x40 DUP4 DUP6 SUB SLT ISZERO PUSH2 0x33C JUMPI PUSH2 0x33B PUSH2 0x289 JUMP JUMPDEST JUMPDEST PUSH1 0x0 PUSH2 0x34A DUP6 DUP3 DUP7 ADD PUSH2 0x2D7 JUMP JUMPDEST SWAP3 POP POP PUSH1 0x20 PUSH2 0x35B DUP6 DUP3 DUP7 ADD PUSH2 0x310 JUMP JUMPDEST SWAP2 POP POP SWAP3 POP SWAP3 SWAP1 POP JUMP JUMPDEST PUSH1 0x0 PUSH2 0x370 DUP3 PUSH2 0x28E JUMP JUMPDEST SWAP1 POP SWAP2 SWAP1 POP JUMP JUMPDEST PUSH2 0x380 DUP2 PUSH2 0x365 JUMP JUMPDEST DUP2 EQ PUSH2 0x38B JUMPI PUSH1 0x0 DUP1 REVERT JUMPDEST POP JUMP JUMPDEST PUSH1 0x0 DUP2 CALLDATALOAD SWAP1 POP PUSH2 0x39D DUP2 PUSH2 0x377 JUMP JUMPDEST SWAP3 SWAP2 POP POP JUMP JUMPDEST PUSH1 0x0 PUSH1 0x20 DUP3 DUP5 SUB SLT ISZERO PUSH2 0x3B9 JUMPI PUSH2 0x3B8 PUSH2 0x289 JUMP JUMPDEST JUMPDEST PUSH1 0x0 PUSH2 0x3C7 DUP5 DUP3 DUP6 ADD PUSH2 0x38E JUMP JUMPDEST SWAP2 POP POP SWAP3 SWAP2 POP POP JUMP JUMPDEST PUSH2 0x3D9 DUP2 PUSH2 0x2EC JUMP JUMPDEST DUP3 MSTORE POP POP JUMP JUMPDEST PUSH1 0x0 PUSH1 0x20 DUP3 ADD SWAP1 POP PUSH2 0x3F4 PUSH1 0x0 DUP4 ADD DUP5 PUSH2 0x3D0 JUMP JUMPDEST SWAP3 SWAP2 POP POP JUMP JUMPDEST PUSH1 0x0 DUP3 DUP3 MSTORE PUSH1 0x20 DUP3 ADD SWAP1 POP SWAP3 SWAP2 POP POP JUMP JUMPDEST PUSH32 0x4E6F7420656E6F7567682066756E64732C2061626F7274696E67212100000000 PUSH1 0x0 DUP3 ADD MSTORE POP JUMP JUMPDEST PUSH1 0x0 PUSH2 0x441 PUSH1 0x1C DUP4 PUSH2 0x3FA JUMP JUMPDEST SWAP2 POP PUSH2 0x44C DUP3 PUSH2 0x40B JUMP JUMPDEST PUSH1 0x20 DUP3 ADD SWAP1 POP SWAP2 SWAP1 POP JUMP JUMPDEST PUSH1 0x0 PUSH1 0x20 DUP3 ADD SWAP1 POP DUP2 DUP2 SUB PUSH1 0x0 DUP4 ADD MSTORE PUSH2 0x470 DUP2 PUSH2 0x434 JUMP JUMPDEST SWAP1 POP SWAP2 SWAP1 POP JUMP JUMPDEST PUSH32 0x4E487B7100000000000000000000000000000000000000000000000000000000 PUSH1 0x0 MSTORE PUSH1 0x11 PUSH1 0x4 MSTORE PUSH1 0x24 PUSH1 0x0 REVERT JUMPDEST PUSH1 0x0 PUSH2 0x4B1 DUP3 PUSH2 0x2EC JUMP JUMPDEST SWAP2 POP PUSH2 0x4BC DUP4 PUSH2 0x2EC JUMP JUMPDEST SWAP3 POP DUP3 DUP3 SUB SWAP1 POP PUSH1 0xFF DUP2 GT ISZERO PUSH2 0x4D5 JUMPI PUSH2 0x4D4 PUSH2 0x477 JUMP JUMPDEST JUMPDEST SWAP3 SWAP2 POP POP JUMP JUMPDEST PUSH32 0x4E487B7100000000000000000000000000000000000000000000000000000000 PUSH1 0x0 MSTORE PUSH1 0x1 PUSH1 0x4 MSTORE PUSH1 0x24 PUSH1 0x0 REVERT INVALID LOG2 PUSH5 0x6970667358 0x22 SLT KECCAK256 0xB4 RETURNDATACOPY DUP13 0x2E 0xE3 ADD 0xA5 0xD0 0xD6 0xE2 0xBD PUSH8 0x63265B923167D9C8 0xF8 0x5D 0xEE DUP12 0xD8 0xB7 SWAP1 0xA8 GASPRICE SAR GASPRICE PUSH20 0x64736F6C63430008110033000000000000000000 "
				},
				"gasEstimates": {
					"creation": {
						"codeDepositCost": "268800",
						"executionCost": "306",
						"totalCost": "269106"
					},
					"external": {
						"balanceReceived(address)": "2867",
						"receiveMoney()": "24502",
						"withdrawMoney(address,uint8)": "infinite"
					}
				},
				"methodIdentifiers": {
					"balanceReceived(address)": "d18a42e1",
					"receiveMoney()": "6d26ec18",
					"withdrawMoney(address,uint8)": "67c114b8"
				}
			},
			"storageLayout": {
				"storage": [
					{
						"astId": 5,
						"contract": "contracts/ExampleExceptionAssert.sol:ExampleExceptionAssert",
						"label": "balanceReceived",
						"offset": 0,
						"slot": "0",
						"type": "t_mapping(t_address,t_uint8)"
					}
				],
				"types": {
					"t_address": {
						"encoding": "inplace",
						"label": "address",
						"numberOfBytes": "20"
					},
					"t_mapping(t_address,t_uint8)": {
						"encoding": "mapping",
						"key": "t_address",
						"label": "mapping(address => uint8)",
						"numberOfBytes": "32",
						"value": "t_uint8"
					},
					"t_uint8": {
						"encoding": "inplace",
						"label": "uint8",
						"numberOfBytes": "1"
					}
				}
			},
			"userdoc": {
				"kind": "user",
				"methods": {},
				"version": 1
			}
		}
	}
}