{
	"contracts/ExampleViewPure.sol": {
		"ExampleViewPure": {
			"abi": [
				{
					"inputs": [
						{
							"internalType": "uint256",
							"name": "a",
							"type": "uint256"
						},
						{
							"internalType": "uint256",
							"name": "b",
							"type": "uint256"
						}
					],
					"name": "getAddition",
					"outputs": [
						{
							"internalType": "uint256",
							"name": "",
							"type": "uint256"
						}
					],
					"stateMutability": "pure",
					"type": "function"
				},
				{
					"inputs": [],
					"name": "getMyStorageVariable",
					"outputs": [
						{
							"internalType": "uint256",
							"name": "",
							"type": "uint256"
						}
					],
					"stateMutability": "view",
					"type": "function"
				},
				{
					"inputs": [],
					"name": "myStorageVariable",
					"outputs": [
						{
							"internalType": "uint8",
							"name": "",
							"type": "uint8"
						}
					],
					"stateMutability": "view",
					"type": "function"
				}
			],
			"devdoc": {
				"kind": "dev",
				"methods": {},
				"version": 1
			},
			"evm": {
				"assembly": "    /* \"contracts/ExampleViewPure.sol\":62:330  contract ExampleViewPure {... */\n  mstore(0x40, 0x80)\n  callvalue\n  dup1\n  iszero\n  tag_1\n  jumpi\n  0x00\n  dup1\n  revert\ntag_1:\n  pop\n  dataSize(sub_0)\n  dup1\n  dataOffset(sub_0)\n  0x00\n  codecopy\n  0x00\n  return\nstop\n\nsub_0: assembly {\n        /* \"contracts/ExampleViewPure.sol\":62:330  contract ExampleViewPure {... */\n      mstore(0x40, 0x80)\n      callvalue\n      dup1\n      iszero\n      tag_1\n      jumpi\n      0x00\n      dup1\n      revert\n    tag_1:\n      pop\n      jumpi(tag_2, lt(calldatasize, 0x04))\n      shr(0xe0, calldataload(0x00))\n      dup1\n      0x08b9e850\n      eq\n      tag_3\n      jumpi\n      dup1\n      0x5f6a36da\n      eq\n      tag_4\n      jumpi\n      dup1\n      0x6e5ca88d\n      eq\n      tag_5\n      jumpi\n    tag_2:\n      0x00\n      dup1\n      revert\n        /* \"contracts/ExampleViewPure.sol\":238:328  function getAddition(uint a, uint b) public pure returns(uint) {... */\n    tag_3:\n      tag_6\n      0x04\n      dup1\n      calldatasize\n      sub\n      dup2\n      add\n      swap1\n      tag_7\n      swap2\n      swap1\n      tag_8\n      jump\t// in\n    tag_7:\n      tag_9\n      jump\t// in\n    tag_6:\n      mload(0x40)\n      tag_10\n      swap2\n      swap1\n      tag_11\n      jump\t// in\n    tag_10:\n      mload(0x40)\n      dup1\n      swap2\n      sub\n      swap1\n      return\n        /* \"contracts/ExampleViewPure.sol\":133:232  function getMyStorageVariable() public view returns(uint) {... */\n    tag_4:\n      tag_12\n      tag_13\n      jump\t// in\n    tag_12:\n      mload(0x40)\n      tag_14\n      swap2\n      swap1\n      tag_11\n      jump\t// in\n    tag_14:\n      mload(0x40)\n      dup1\n      swap2\n      sub\n      swap1\n      return\n        /* \"contracts/ExampleViewPure.sol\":95:125  uint8 public myStorageVariable */\n    tag_5:\n      tag_15\n      tag_16\n      jump\t// in\n    tag_15:\n      mload(0x40)\n      tag_17\n      swap2\n      swap1\n      tag_18\n      jump\t// in\n    tag_17:\n      mload(0x40)\n      dup1\n      swap2\n      sub\n      swap1\n      return\n        /* \"contracts/ExampleViewPure.sol\":238:328  function getAddition(uint a, uint b) public pure returns(uint) {... */\n    tag_9:\n        /* \"contracts/ExampleViewPure.sol\":295:299  uint */\n      0x00\n        /* \"contracts/ExampleViewPure.sol\":320:321  b */\n      dup2\n        /* \"contracts/ExampleViewPure.sol\":318:319  a */\n      dup4\n        /* \"contracts/ExampleViewPure.sol\":318:321  a+b */\n      tag_20\n      swap2\n      swap1\n      tag_21\n      jump\t// in\n    tag_20:\n        /* \"contracts/ExampleViewPure.sol\":311:321  return a+b */\n      swap1\n      pop\n        /* \"contracts/ExampleViewPure.sol\":238:328  function getAddition(uint a, uint b) public pure returns(uint) {... */\n      swap3\n      swap2\n      pop\n      pop\n      jump\t// out\n        /* \"contracts/ExampleViewPure.sol\":133:232  function getMyStorageVariable() public view returns(uint) {... */\n    tag_13:\n        /* \"contracts/ExampleViewPure.sol\":185:189  uint */\n      0x00\n        /* \"contracts/ExampleViewPure.sol\":208:225  myStorageVariable */\n      dup1\n      0x00\n      swap1\n      sload\n      swap1\n      0x0100\n      exp\n      swap1\n      div\n      0xff\n      and\n        /* \"contracts/ExampleViewPure.sol\":201:225  return myStorageVariable */\n      0xff\n      and\n      swap1\n      pop\n        /* \"contracts/ExampleViewPure.sol\":133:232  function getMyStorageVariable() public view returns(uint) {... */\n      swap1\n      jump\t// out\n        /* \"contracts/ExampleViewPure.sol\":95:125  uint8 public myStorageVariable */\n    tag_16:\n      0x00\n      dup1\n      sload\n      swap1\n      0x0100\n      exp\n      swap1\n      div\n      0xff\n      and\n      dup2\n      jump\t// out\n        /* \"#utility.yul\":88:205   */\n    tag_24:\n        /* \"#utility.yul\":197:198   */\n      0x00\n        /* \"#utility.yul\":194:195   */\n      dup1\n        /* \"#utility.yul\":187:199   */\n      revert\n        /* \"#utility.yul\":334:411   */\n    tag_26:\n        /* \"#utility.yul\":371:378   */\n      0x00\n        /* \"#utility.yul\":400:405   */\n      dup2\n        /* \"#utility.yul\":389:405   */\n      swap1\n      pop\n        /* \"#utility.yul\":334:411   */\n      swap2\n      swap1\n      pop\n      jump\t// out\n        /* \"#utility.yul\":417:539   */\n    tag_27:\n        /* \"#utility.yul\":490:514   */\n      tag_39\n        /* \"#utility.yul\":508:513   */\n      dup2\n        /* \"#utility.yul\":490:514   */\n      tag_26\n      jump\t// in\n    tag_39:\n        /* \"#utility.yul\":483:488   */\n      dup2\n        /* \"#utility.yul\":480:515   */\n      eq\n        /* \"#utility.yul\":470:533   */\n      tag_40\n      jumpi\n        /* \"#utility.yul\":529:530   */\n      0x00\n        /* \"#utility.yul\":526:527   */\n      dup1\n        /* \"#utility.yul\":519:531   */\n      revert\n        /* \"#utility.yul\":470:533   */\n    tag_40:\n        /* \"#utility.yul\":417:539   */\n      pop\n      jump\t// out\n        /* \"#utility.yul\":545:684   */\n    tag_28:\n        /* \"#utility.yul\":591:596   */\n      0x00\n        /* \"#utility.yul\":629:635   */\n      dup2\n        /* \"#utility.yul\":616:636   */\n      calldataload\n        /* \"#utility.yul\":607:636   */\n      swap1\n      pop\n        /* \"#utility.yul\":645:678   */\n      tag_42\n        /* \"#utility.yul\":672:677   */\n      dup2\n        /* \"#utility.yul\":645:678   */\n      tag_27\n      jump\t// in\n    tag_42:\n        /* \"#utility.yul\":545:684   */\n      swap3\n      swap2\n      pop\n      pop\n      jump\t// out\n        /* \"#utility.yul\":690:1164   */\n    tag_8:\n        /* \"#utility.yul\":758:764   */\n      0x00\n        /* \"#utility.yul\":766:772   */\n      dup1\n        /* \"#utility.yul\":815:817   */\n      0x40\n        /* \"#utility.yul\":803:812   */\n      dup4\n        /* \"#utility.yul\":794:801   */\n      dup6\n        /* \"#utility.yul\":790:813   */\n      sub\n        /* \"#utility.yul\":786:818   */\n      slt\n        /* \"#utility.yul\":783:902   */\n      iszero\n      tag_44\n      jumpi\n        /* \"#utility.yul\":821:900   */\n      tag_45\n      tag_24\n      jump\t// in\n    tag_45:\n        /* \"#utility.yul\":783:902   */\n    tag_44:\n        /* \"#utility.yul\":941:942   */\n      0x00\n        /* \"#utility.yul\":966:1019   */\n      tag_46\n        /* \"#utility.yul\":1011:1018   */\n      dup6\n        /* \"#utility.yul\":1002:1008   */\n      dup3\n        /* \"#utility.yul\":991:1000   */\n      dup7\n        /* \"#utility.yul\":987:1009   */\n      add\n        /* \"#utility.yul\":966:1019   */\n      tag_28\n      jump\t// in\n    tag_46:\n        /* \"#utility.yul\":956:1019   */\n      swap3\n      pop\n        /* \"#utility.yul\":912:1029   */\n      pop\n        /* \"#utility.yul\":1068:1070   */\n      0x20\n        /* \"#utility.yul\":1094:1147   */\n      tag_47\n        /* \"#utility.yul\":1139:1146   */\n      dup6\n        /* \"#utility.yul\":1130:1136   */\n      dup3\n        /* \"#utility.yul\":1119:1128   */\n      dup7\n        /* \"#utility.yul\":1115:1137   */\n      add\n        /* \"#utility.yul\":1094:1147   */\n      tag_28\n      jump\t// in\n    tag_47:\n        /* \"#utility.yul\":1084:1147   */\n      swap2\n      pop\n        /* \"#utility.yul\":1039:1157   */\n      pop\n        /* \"#utility.yul\":690:1164   */\n      swap3\n      pop\n      swap3\n      swap1\n      pop\n      jump\t// out\n        /* \"#utility.yul\":1170:1288   */\n    tag_29:\n        /* \"#utility.yul\":1257:1281   */\n      tag_49\n        /* \"#utility.yul\":1275:1280   */\n      dup2\n        /* \"#utility.yul\":1257:1281   */\n      tag_26\n      jump\t// in\n    tag_49:\n        /* \"#utility.yul\":1252:1255   */\n      dup3\n        /* \"#utility.yul\":1245:1282   */\n      mstore\n        /* \"#utility.yul\":1170:1288   */\n      pop\n      pop\n      jump\t// out\n        /* \"#utility.yul\":1294:1516   */\n    tag_11:\n        /* \"#utility.yul\":1387:1391   */\n      0x00\n        /* \"#utility.yul\":1425:1427   */\n      0x20\n        /* \"#utility.yul\":1414:1423   */\n      dup3\n        /* \"#utility.yul\":1410:1428   */\n      add\n        /* \"#utility.yul\":1402:1428   */\n      swap1\n      pop\n        /* \"#utility.yul\":1438:1509   */\n      tag_51\n        /* \"#utility.yul\":1506:1507   */\n      0x00\n        /* \"#utility.yul\":1495:1504   */\n      dup4\n        /* \"#utility.yul\":1491:1508   */\n      add\n        /* \"#utility.yul\":1482:1488   */\n      dup5\n        /* \"#utility.yul\":1438:1509   */\n      tag_29\n      jump\t// in\n    tag_51:\n        /* \"#utility.yul\":1294:1516   */\n      swap3\n      swap2\n      pop\n      pop\n      jump\t// out\n        /* \"#utility.yul\":1522:1608   */\n    tag_30:\n        /* \"#utility.yul\":1557:1564   */\n      0x00\n        /* \"#utility.yul\":1597:1601   */\n      0xff\n        /* \"#utility.yul\":1590:1595   */\n      dup3\n        /* \"#utility.yul\":1586:1602   */\n      and\n        /* \"#utility.yul\":1575:1602   */\n      swap1\n      pop\n        /* \"#utility.yul\":1522:1608   */\n      swap2\n      swap1\n      pop\n      jump\t// out\n        /* \"#utility.yul\":1614:1726   */\n    tag_31:\n        /* \"#utility.yul\":1697:1719   */\n      tag_54\n        /* \"#utility.yul\":1713:1718   */\n      dup2\n        /* \"#utility.yul\":1697:1719   */\n      tag_30\n      jump\t// in\n    tag_54:\n        /* \"#utility.yul\":1692:1695   */\n      dup3\n        /* \"#utility.yul\":1685:1720   */\n      mstore\n        /* \"#utility.yul\":1614:1726   */\n      pop\n      pop\n      jump\t// out\n        /* \"#utility.yul\":1732:1946   */\n    tag_18:\n        /* \"#utility.yul\":1821:1825   */\n      0x00\n        /* \"#utility.yul\":1859:1861   */\n      0x20\n        /* \"#utility.yul\":1848:1857   */\n      dup3\n        /* \"#utility.yul\":1844:1862   */\n      add\n        /* \"#utility.yul\":1836:1862   */\n      swap1\n      pop\n        /* \"#utility.yul\":1872:1939   */\n      tag_56\n        /* \"#utility.yul\":1936:1937   */\n      0x00\n        /* \"#utility.yul\":1925:1934   */\n      dup4\n        /* \"#utility.yul\":1921:1938   */\n      add\n        /* \"#utility.yul\":1912:1918   */\n      dup5\n        /* \"#utility.yul\":1872:1939   */\n      tag_31\n      jump\t// in\n    tag_56:\n        /* \"#utility.yul\":1732:1946   */\n      swap3\n      swap2\n      pop\n      pop\n      jump\t// out\n        /* \"#utility.yul\":1952:2132   */\n    tag_32:\n        /* \"#utility.yul\":2000:2077   */\n      0x4e487b7100000000000000000000000000000000000000000000000000000000\n        /* \"#utility.yul\":1997:1998   */\n      0x00\n        /* \"#utility.yul\":1990:2078   */\n      mstore\n        /* \"#utility.yul\":2097:2101   */\n      0x11\n        /* \"#utility.yul\":2094:2095   */\n      0x04\n        /* \"#utility.yul\":2087:2102   */\n      mstore\n        /* \"#utility.yul\":2121:2125   */\n      0x24\n        /* \"#utility.yul\":2118:2119   */\n      0x00\n        /* \"#utility.yul\":2111:2126   */\n      revert\n        /* \"#utility.yul\":2138:2329   */\n    tag_21:\n        /* \"#utility.yul\":2178:2181   */\n      0x00\n        /* \"#utility.yul\":2197:2217   */\n      tag_59\n        /* \"#utility.yul\":2215:2216   */\n      dup3\n        /* \"#utility.yul\":2197:2217   */\n      tag_26\n      jump\t// in\n    tag_59:\n        /* \"#utility.yul\":2192:2217   */\n      swap2\n      pop\n        /* \"#utility.yul\":2231:2251   */\n      tag_60\n        /* \"#utility.yul\":2249:2250   */\n      dup4\n        /* \"#utility.yul\":2231:2251   */\n      tag_26\n      jump\t// in\n    tag_60:\n        /* \"#utility.yul\":2226:2251   */\n      swap3\n      pop\n        /* \"#utility.yul\":2274:2275   */\n      dup3\n        /* \"#utility.yul\":2271:2272   */\n      dup3\n        /* \"#utility.yul\":2267:2276   */\n      add\n        /* \"#utility.yul\":2260:2276   */\n      swap1\n      pop\n        /* \"#utility.yul\":2295:2298   */\n      dup1\n        /* \"#utility.yul\":2292:2293   */\n      dup3\n        /* \"#utility.yul\":2289:2299   */\n      gt\n        /* \"#utility.yul\":2286:2322   */\n      iszero\n      tag_61\n      jumpi\n        /* \"#utility.yul\":2302:2320   */\n      tag_62\n      tag_32\n      jump\t// in\n    tag_62:\n        /* \"#utility.yul\":2286:2322   */\n    tag_61:\n        /* \"#utility.yul\":2138:2329   */\n      swap3\n      swap2\n      pop\n      pop\n      jump\t// out\n\n    auxdata: 0xa2646970667358221220c67fda039ee3c6098aaae83c20c220d7839761247aa95469d1402f9cae4a11a064736f6c63430008110033\n}\n",
				"bytecode": {
					"linkReferences": {},
					"object": "608060405234801561001057600080fd5b50610267806100206000396000f3fe608060405234801561001057600080fd5b50600436106100415760003560e01c806308b9e850146100465780635f6a36da146100765780636e5ca88d14610094575b600080fd5b610060600480360381019061005b919061012d565b6100b2565b60405161006d919061017c565b60405180910390f35b61007e6100c8565b60405161008b919061017c565b60405180910390f35b61009c6100e1565b6040516100a991906101b3565b60405180910390f35b600081836100c091906101fd565b905092915050565b60008060009054906101000a900460ff1660ff16905090565b60008054906101000a900460ff1681565b600080fd5b6000819050919050565b61010a816100f7565b811461011557600080fd5b50565b60008135905061012781610101565b92915050565b60008060408385031215610144576101436100f2565b5b600061015285828601610118565b925050602061016385828601610118565b9150509250929050565b610176816100f7565b82525050565b6000602082019050610191600083018461016d565b92915050565b600060ff82169050919050565b6101ad81610197565b82525050565b60006020820190506101c860008301846101a4565b92915050565b7f4e487b7100000000000000000000000000000000000000000000000000000000600052601160045260246000fd5b6000610208826100f7565b9150610213836100f7565b925082820190508082111561022b5761022a6101ce565b5b9291505056fea2646970667358221220c67fda039ee3c6098aaae83c20c220d7839761247aa95469d1402f9cae4a11a064736f6c63430008110033",
					"opcodes": "PUSH1 0x80 PUSH1 0x40 MSTORE CALLVALUE DUP1 ISZERO PUSH2 0x10 JUMPI PUSH1 0x0 DUP1 REVERT JUMPDEST POP PUSH2 0x267 DUP1 PUSH2 0x20 PUSH1 0x0 CODECOPY PUSH1 0x0 RETURN INVALID PUSH1 0x80 PUSH1 0x40 MSTORE CALLVALUE DUP1 ISZERO PUSH2 0x10 JUMPI PUSH1 0x0 DUP1 REVERT JUMPDEST POP PUSH1 0x4 CALLDATASIZE LT PUSH2 0x41 JUMPI PUSH1 0x0 CALLDATALOAD PUSH1 0xE0 SHR DUP1 PUSH4 0x8B9E850 EQ PUSH2 0x46 JUMPI DUP1 PUSH4 0x5F6A36DA EQ PUSH2 0x76 JUMPI DUP1 PUSH4 0x6E5CA88D EQ PUSH2 0x94 JUMPI JUMPDEST PUSH1 0x0 DUP1 REVERT JUMPDEST PUSH2 0x60 PUSH1 0x4 DUP1 CALLDATASIZE SUB DUP2 ADD SWAP1 PUSH2 0x5B SWAP2 SWAP1 PUSH2 0x12D JUMP JUMPDEST PUSH2 0xB2 JUMP JUMPDEST PUSH1 0x40 MLOAD PUSH2 0x6D SWAP2 SWAP1 PUSH2 0x17C JUMP JUMPDEST PUSH1 0x40 MLOAD DUP1 SWAP2 SUB SWAP1 RETURN JUMPDEST PUSH2 0x7E PUSH2 0xC8 JUMP JUMPDEST PUSH1 0x40 MLOAD PUSH2 0x8B SWAP2 SWAP1 PUSH2 0x17C JUMP JUMPDEST PUSH1 0x40 MLOAD DUP1 SWAP2 SUB SWAP1 RETURN JUMPDEST PUSH2 0x9C PUSH2 0xE1 JUMP JUMPDEST PUSH1 0x40 MLOAD PUSH2 0xA9 SWAP2 SWAP1 PUSH2 0x1B3 JUMP JUMPDEST PUSH1 0x40 MLOAD DUP1 SWAP2 SUB SWAP1 RETURN JUMPDEST PUSH1 0x0 DUP2 DUP4 PUSH2 0xC0 SWAP2 SWAP1 PUSH2 0x1FD JUMP JUMPDEST SWAP1 POP SWAP3 SWAP2 POP POP JUMP JUMPDEST PUSH1 0x0 DUP1 PUSH1 0x0 SWAP1 SLOAD SWAP1 PUSH2 0x100 EXP SWAP1 DIV PUSH1 0xFF AND PUSH1 0xFF AND SWAP1 POP SWAP1 JUMP JUMPDEST PUSH1 0x0 DUP1 SLOAD SWAP1 PUSH2 0x100 EXP SWAP1 DIV PUSH1 0xFF AND DUP2 JUMP JUMPDEST PUSH1 0x0 DUP1 REVERT JUMPDEST PUSH1 0x0 DUP2 SWAP1 POP SWAP2 SWAP1 POP JUMP JUMPDEST PUSH2 0x10A DUP2 PUSH2 0xF7 JUMP JUMPDEST DUP2 EQ PUSH2 0x115 JUMPI PUSH1 0x0 DUP1 REVERT JUMPDEST POP JUMP JUMPDEST PUSH1 0x0 DUP2 CALLDATALOAD SWAP1 POP PUSH2 0x127 DUP2 PUSH2 0x101 JUMP JUMPDEST SWAP3 SWAP2 POP POP JUMP JUMPDEST PUSH1 0x0 DUP1 PUSH1 0x40 DUP4 DUP6 SUB SLT ISZERO PUSH2 0x144 JUMPI PUSH2 0x143 PUSH2 0xF2 JUMP JUMPDEST JUMPDEST PUSH1 0x0 PUSH2 0x152 DUP6 DUP3 DUP7 ADD PUSH2 0x118 JUMP JUMPDEST SWAP3 POP POP PUSH1 0x20 PUSH2 0x163 DUP6 DUP3 DUP7 ADD PUSH2 0x118 JUMP JUMPDEST SWAP2 POP POP SWAP3 POP SWAP3 SWAP1 POP JUMP JUMPDEST PUSH2 0x176 DUP2 PUSH2 0xF7 JUMP JUMPDEST DUP3 MSTORE POP POP JUMP JUMPDEST PUSH1 0x0 PUSH1 0x20 DUP3 ADD SWAP1 POP PUSH2 0x191 PUSH1 0x0 DUP4 ADD DUP5 PUSH2 0x16D JUMP JUMPDEST SWAP3 SWAP2 POP POP JUMP JUMPDEST PUSH1 0x0 PUSH1 0xFF DUP3 AND SWAP1 POP SWAP2 SWAP1 POP JUMP JUMPDEST PUSH2 0x1AD DUP2 PUSH2 0x197 JUMP JUMPDEST DUP3 MSTORE POP POP JUMP JUMPDEST PUSH1 0x0 PUSH1 0x20 DUP3 ADD SWAP1 POP PUSH2 0x1C8 PUSH1 0x0 DUP4 ADD DUP5 PUSH2 0x1A4 JUMP JUMPDEST SWAP3 SWAP2 POP POP JUMP JUMPDEST PUSH32 0x4E487B7100000000000000000000000000000000000000000000000000000000 PUSH1 0x0 MSTORE PUSH1 0x11 PUSH1 0x4 MSTORE PUSH1 0x24 PUSH1 0x0 REVERT JUMPDEST PUSH1 0x0 PUSH2 0x208 DUP3 PUSH2 0xF7 JUMP JUMPDEST SWAP2 POP PUSH2 0x213 DUP4 PUSH2 0xF7 JUMP JUMPDEST SWAP3 POP DUP3 DUP3 ADD SWAP1 POP DUP1 DUP3 GT ISZERO PUSH2 0x22B JUMPI PUSH2 0x22A PUSH2 0x1CE JUMP JUMPDEST JUMPDEST SWAP3 SWAP2 POP POP JUMP INVALID LOG2 PUSH5 0x6970667358 0x22 SLT KECCAK256 0xC6 PUSH32 0xDA039EE3C6098AAAE83C20C220D7839761247AA95469D1402F9CAE4A11A06473 PUSH16 0x6C634300081100330000000000000000 "
				},
				"gasEstimates": {
					"creation": {
						"codeDepositCost": "123000",
						"executionCost": "171",
						"totalCost": "123171"
					},
					"external": {
						"getAddition(uint256,uint256)": "infinite",
						"getMyStorageVariable()": "2479",
						"myStorageVariable()": "2490"
					}
				},
				"methodIdentifiers": {
					"getAddition(uint256,uint256)": "08b9e850",
					"getMyStorageVariable()": "5f6a36da",
					"myStorageVariable()": "6e5ca88d"
				}
			},
			"storageLayout": {
				"storage": [
					{
						"astId": 3,
						"contract": "contracts/ExampleViewPure.sol:ExampleViewPure",
						"label": "myStorageVariable",
						"offset": 0,
						"slot": "0",
						"type": "t_uint8"
					}
				],
				"types": {
					"t_uint8": {
						"encoding": "inplace",
						"label": "uint8",
						"numberOfBytes": "1"
					}
				}
			},
			"userdoc": {
				"kind": "user",
				"methods": {},
				"version": 1
			}
		}
	}
}